{
  "_format": "hh-sol-artifact-1",
  "contractName": "VotingHub",
  "sourceName": "contracts/Voting.sol",
  "abi": [
    {
      "anonymous": false,
      "inputs": [
        {
          "indexed": false,
          "internalType": "uint256",
          "name": "pollId",
          "type": "uint256"
        },
        {
          "indexed": false,
          "internalType": "address",
          "name": "verifier",
          "type": "address"
        },
        {
          "indexed": false,
          "internalType": "string",
          "name": "question",
          "type": "string"
        }
      ],
      "name": "PollCreated",
      "type": "event"
    },
    {
      "anonymous": false,
      "inputs": [
        {
          "indexed": false,
          "internalType": "uint256",
          "name": "pollId",
          "type": "uint256"
        },
        {
          "indexed": false,
          "internalType": "uint256",
          "name": "optionId",
          "type": "uint256"
        }
      ],
      "name": "VoteCast",
      "type": "event"
    },
    {
      "inputs": [
        {
          "internalType": "address",
          "name": "_verifier",
          "type": "address"
        },
        {
          "internalType": "string",
          "name": "_question",
          "type": "string"
        },
        {
          "internalType": "string[]",
          "name": "_options",
          "type": "string[]"
        },
        {
          "internalType": "string",
          "name": "_metadataURI",
          "type": "string"
        }
      ],
      "name": "createPoll",
      "outputs": [],
      "stateMutability": "nonpayable",
      "type": "function"
    },
    {
      "inputs": [
        {
          "internalType": "uint256",
          "name": "_pollId",
          "type": "uint256"
        }
      ],
      "name": "getOptions",
      "outputs": [
        {
          "internalType": "string[]",
          "name": "",
          "type": "string[]"
        }
      ],
      "stateMutability": "view",
      "type": "function"
    },
    {
      "inputs": [
        {
          "internalType": "uint256",
          "name": "_pollId",
          "type": "uint256"
        },
        {
          "internalType": "uint256",
          "name": "_optionId",
          "type": "uint256"
        }
      ],
      "name": "getVotes",
      "outputs": [
        {
          "internalType": "uint256",
          "name": "",
          "type": "uint256"
        }
      ],
      "stateMutability": "view",
      "type": "function"
    },
    {
      "inputs": [],
      "name": "nextPollId",
      "outputs": [
        {
          "internalType": "uint256",
          "name": "",
          "type": "uint256"
        }
      ],
      "stateMutability": "view",
      "type": "function"
    },
    {
      "inputs": [
        {
          "internalType": "uint256",
          "name": "",
          "type": "uint256"
        }
      ],
      "name": "polls",
      "outputs": [
        {
          "internalType": "address",
          "name": "creator",
          "type": "address"
        },
        {
          "internalType": "address",
          "name": "verifierContract",
          "type": "address"
        },
        {
          "internalType": "uint256",
          "name": "pollId",
          "type": "uint256"
        },
        {
          "internalType": "string",
          "name": "question",
          "type": "string"
        },
        {
          "internalType": "string",
          "name": "metadataURI",
          "type": "string"
        },
        {
          "internalType": "bool",
          "name": "exists",
          "type": "bool"
        }
      ],
      "stateMutability": "view",
      "type": "function"
    },
    {
      "inputs": [
        {
          "internalType": "uint256",
          "name": "_pollId",
          "type": "uint256"
        },
        {
          "internalType": "uint256",
          "name": "_optionId",
          "type": "uint256"
        },
        {
          "internalType": "bytes",
          "name": "_proofData",
          "type": "bytes"
        }
      ],
      "name": "vote",
      "outputs": [],
      "stateMutability": "nonpayable",
      "type": "function"
    }
  ],
  "bytecode": "0x608060405234801561001057600080fd5b50610dc9806100206000396000f3fe608060405234801561001057600080fd5b50600436106100625760003560e01c80632b786571146100675780638915b3fb1461008357806391f36633146100a3578063981790c9146100b6578063a867b846146100cb578063ac2f0074146100de575b600080fd5b61007060015481565b6040519081526020015b60405180910390f35b6100966100913660046107bf565b610103565b60405161007a919061081e565b6100706100b1366004610880565b610221565b6100c96100c4366004610959565b610272565b005b6100c96100d9366004610a84565b610399565b6100f16100ec3660046107bf565b6105a4565b60405161007a96959493929190610b04565b60008181526020819052604090206008015460609060ff166101405760405162461bcd60e51b815260040161013790610b5f565b60405180910390fd5b60008281526020818152604080832060040180548251818502810185019093528083529193909284015b8282101561021657838290600052602060002001805461018990610b87565b80601f01602080910402602001604051908101604052809291908181526020018280546101b590610b87565b80156102025780601f106101d757610100808354040283529160200191610202565b820191906000526020600020905b8154815290600101906020018083116101e557829003601f168201915b50505050508152602001906001019061016a565b505050509050919050565b60008281526020819052604081206008015460ff166102525760405162461bcd60e51b815260040161013790610b5f565b506000918252602082815260408084209284526006909201905290205490565b6002825110156102c45760405162461bcd60e51b815260206004820152601b60248201527f4174206c656173742032206f7074696f6e7320726571756972656400000000006044820152606401610137565b60018054600091826102d583610bc1565b9091555060008181526020819052604090208054336001600160a01b03199182161782556001820180549091166001600160a01b038916179055909150600381016103208682610c37565b50835161033690600483019060208701906106fa565b50600581016103458482610c37565b5060088101805460ff191660011790556040517f7cf84e937b660a86b8d03903abf94c2e2976b2273da8dfbef2d89b7ac560463e9061038990849089908990610cf7565b60405180910390a1505050505050565b6000848152602081905260409020600881015460ff166103cb5760405162461bcd60e51b815260040161013790610b5f565b6004810154841061040f5760405162461bcd60e51b815260206004820152600e60248201526d24b73b30b634b21037b83a34b7b760911b6044820152606401610137565b600181015460405163c945924960e01b81526001600160a01b03909116906000908190839063c94592499061044c908b908a908a90600401610d2a565b60408051808303816000875af115801561046a573d6000803e3d6000fd5b505050506040513d601f19601f8201168201806040525081019061048e9190610d60565b91509150816104d25760405162461bcd60e51b815260206004820152601060248201526f24b73b30b634b2102d2590283937b7b360811b6044820152606401610137565b6000818152600785016020526040902054819060ff16156105255760405162461bcd60e51b815260206004820152600d60248201526c446f75626c6520766f74696e6760981b6044820152606401610137565b60008181526007860160209081526040808320805460ff191660011790558a835260068801909152812080549161055b83610bc1565b9091555050604080518a8152602081018a90527fc31875ef3ed5138b71a0c1da7e494bc4d2ba4f567084ea481ec9c45f3a93948b910160405180910390a1505050505050505050565b60006020819052908152604090208054600182015460028301546003840180546001600160a01b0394851695949093169391926105e090610b87565b80601f016020809104026020016040519081016040528092919081815260200182805461060c90610b87565b80156106595780601f1061062e57610100808354040283529160200191610659565b820191906000526020600020905b81548152906001019060200180831161063c57829003601f168201915b50505050509080600501805461066e90610b87565b80601f016020809104026020016040519081016040528092919081815260200182805461069a90610b87565b80156106e75780601f106106bc576101008083540402835291602001916106e7565b820191906000526020600020905b8154815290600101906020018083116106ca57829003601f168201915b5050506008909301549192505060ff1686565b828054828255906000526020600020908101928215610740579160200282015b8281111561074057825182906107309082610c37565b509160200191906001019061071a565b5061074c929150610750565b5090565b8082111561074c576000610764828261076d565b50600101610750565b50805461077990610b87565b6000825580601f10610789575050565b601f0160209004906000526020600020908101906107a791906107aa565b50565b5b8082111561074c57600081556001016107ab565b6000602082840312156107d157600080fd5b5035919050565b6000815180845260005b818110156107fe576020818501810151868301820152016107e2565b506000602082860101526020601f19601f83011685010191505092915050565b6000602080830181845280855180835260408601915060408160051b870101925083870160005b8281101561087357603f198886030184526108618583516107d8565b94509285019290850190600101610845565b5092979650505050505050565b6000806040838503121561089357600080fd5b50508035926020909101359150565b634e487b7160e01b600052604160045260246000fd5b604051601f8201601f1916810167ffffffffffffffff811182821017156108e1576108e16108a2565b604052919050565b600082601f8301126108fa57600080fd5b813567ffffffffffffffff811115610914576109146108a2565b610927601f8201601f19166020016108b8565b81815284602083860101111561093c57600080fd5b816020850160208301376000918101602001919091529392505050565b6000806000806080858703121561096f57600080fd5b84356001600160a01b038116811461098657600080fd5b935060208581013567ffffffffffffffff808211156109a457600080fd5b6109b089838a016108e9565b955060408801359150808211156109c657600080fd5b818801915088601f8301126109da57600080fd5b8135818111156109ec576109ec6108a2565b8060051b6109fb8582016108b8565b918252838101850191858101908c841115610a1557600080fd5b86860192505b83831015610a5157823585811115610a335760008081fd5b610a418e89838a01016108e9565b8352509186019190860190610a1b565b97505050506060880135925080831115610a6a57600080fd5b5050610a78878288016108e9565b91505092959194509250565b60008060008060608587031215610a9a57600080fd5b8435935060208501359250604085013567ffffffffffffffff80821115610ac057600080fd5b818701915087601f830112610ad457600080fd5b813581811115610ae357600080fd5b886020828501011115610af557600080fd5b95989497505060200194505050565b6001600160a01b038781168252861660208201526040810185905260c060608201819052600090610b37908301866107d8565b8281036080840152610b4981866107d8565b91505082151560a0830152979650505050505050565b6020808252600e908201526d141bdb1b081b9bdd08199bdd5b9960921b604082015260600190565b600181811c90821680610b9b57607f821691505b602082108103610bbb57634e487b7160e01b600052602260045260246000fd5b50919050565b600060018201610be157634e487b7160e01b600052601160045260246000fd5b5060010190565b601f821115610c3257600081815260208120601f850160051c81016020861015610c0f5750805b601f850160051c820191505b81811015610c2e57828155600101610c1b565b5050505b505050565b815167ffffffffffffffff811115610c5157610c516108a2565b610c6581610c5f8454610b87565b84610be8565b602080601f831160018114610c9a5760008415610c825750858301515b600019600386901b1c1916600185901b178555610c2e565b600085815260208120601f198616915b82811015610cc957888601518255948401946001909101908401610caa565b5085821015610ce75787850151600019600388901b60f8161c191681555b5050505050600190811b01905550565b8381526001600160a01b0383166020820152606060408201819052600090610d21908301846107d8565b95945050505050565b83815260406020820152816040820152818360608301376000818301606090810191909152601f909201601f1916010192915050565b60008060408385031215610d7357600080fd5b82518015158114610d8357600080fd5b602093909301519294929350505056fea2646970667358221220304cc2bd65d5abae3e4f2f5c597f2d535db43abbaefe249abb46c5fff3dbc81264736f6c63430008150033",
  "linkReferences": {},
  "deployedLinkReferences": {}
}