{
  "_format": "hh-sol-artifact-1",
  "contractName": "VotingHub",
  "sourceName": "contracts/Voting.sol",
  "abi": [
    {
      "anonymous": false,
      "inputs": [
        {
          "indexed": false,
          "internalType": "uint256",
          "name": "pollId",
          "type": "uint256"
        },
        {
          "indexed": false,
          "internalType": "address",
          "name": "verifier",
          "type": "address"
        },
        {
          "indexed": false,
          "internalType": "string",
          "name": "question",
          "type": "string"
        },
        {
          "indexed": false,
          "internalType": "uint256",
          "name": "endTime",
          "type": "uint256"
        }
      ],
      "name": "PollCreated",
      "type": "event"
    },
    {
      "anonymous": false,
      "inputs": [
        {
          "indexed": false,
          "internalType": "uint256",
          "name": "pollId",
          "type": "uint256"
        },
        {
          "indexed": false,
          "internalType": "uint256",
          "name": "optionId",
          "type": "uint256"
        }
      ],
      "name": "VoteCast",
      "type": "event"
    },
    {
      "inputs": [
        {
          "internalType": "address",
          "name": "_verifier",
          "type": "address"
        },
        {
          "internalType": "string",
          "name": "_question",
          "type": "string"
        },
        {
          "internalType": "string[]",
          "name": "_options",
          "type": "string[]"
        },
        {
          "internalType": "string",
          "name": "_metadataURI",
          "type": "string"
        },
        {
          "internalType": "uint256",
          "name": "_durationInSeconds",
          "type": "uint256"
        }
      ],
      "name": "createPoll",
      "outputs": [],
      "stateMutability": "nonpayable",
      "type": "function"
    },
    {
      "inputs": [
        {
          "internalType": "uint256",
          "name": "_pollId",
          "type": "uint256"
        }
      ],
      "name": "getOptions",
      "outputs": [
        {
          "internalType": "string[]",
          "name": "",
          "type": "string[]"
        }
      ],
      "stateMutability": "view",
      "type": "function"
    },
    {
      "inputs": [
        {
          "internalType": "uint256",
          "name": "_pollId",
          "type": "uint256"
        },
        {
          "internalType": "uint256",
          "name": "_optionId",
          "type": "uint256"
        }
      ],
      "name": "getVotes",
      "outputs": [
        {
          "internalType": "uint256",
          "name": "",
          "type": "uint256"
        }
      ],
      "stateMutability": "view",
      "type": "function"
    },
    {
      "inputs": [
        {
          "internalType": "uint256",
          "name": "",
          "type": "uint256"
        },
        {
          "internalType": "bytes32",
          "name": "",
          "type": "bytes32"
        }
      ],
      "name": "hasVoted",
      "outputs": [
        {
          "internalType": "bool",
          "name": "",
          "type": "bool"
        }
      ],
      "stateMutability": "view",
      "type": "function"
    },
    {
      "inputs": [],
      "name": "nextPollId",
      "outputs": [
        {
          "internalType": "uint256",
          "name": "",
          "type": "uint256"
        }
      ],
      "stateMutability": "view",
      "type": "function"
    },
    {
      "inputs": [
        {
          "internalType": "uint256",
          "name": "",
          "type": "uint256"
        },
        {
          "internalType": "uint256",
          "name": "",
          "type": "uint256"
        }
      ],
      "name": "pollOptions",
      "outputs": [
        {
          "internalType": "string",
          "name": "",
          "type": "string"
        }
      ],
      "stateMutability": "view",
      "type": "function"
    },
    {
      "inputs": [
        {
          "internalType": "uint256",
          "name": "",
          "type": "uint256"
        }
      ],
      "name": "polls",
      "outputs": [
        {
          "internalType": "address",
          "name": "creator",
          "type": "address"
        },
        {
          "internalType": "address",
          "name": "verifierContract",
          "type": "address"
        },
        {
          "internalType": "uint256",
          "name": "pollId",
          "type": "uint256"
        },
        {
          "internalType": "string",
          "name": "question",
          "type": "string"
        },
        {
          "internalType": "string",
          "name": "metadataURI",
          "type": "string"
        },
        {
          "internalType": "uint256",
          "name": "endTime",
          "type": "uint256"
        },
        {
          "internalType": "bool",
          "name": "exists",
          "type": "bool"
        }
      ],
      "stateMutability": "view",
      "type": "function"
    },
    {
      "inputs": [
        {
          "internalType": "uint256",
          "name": "_pollId",
          "type": "uint256"
        },
        {
          "internalType": "uint256",
          "name": "_optionId",
          "type": "uint256"
        },
        {
          "internalType": "bytes",
          "name": "_proofData",
          "type": "bytes"
        }
      ],
      "name": "vote",
      "outputs": [],
      "stateMutability": "nonpayable",
      "type": "function"
    },
    {
      "inputs": [
        {
          "internalType": "uint256",
          "name": "",
          "type": "uint256"
        },
        {
          "internalType": "uint256",
          "name": "",
          "type": "uint256"
        }
      ],
      "name": "votes",
      "outputs": [
        {
          "internalType": "uint256",
          "name": "",
          "type": "uint256"
        }
      ],
      "stateMutability": "view",
      "type": "function"
    }
  ],
  "bytecode": "0x608060405234801561001057600080fd5b50611066806100206000396000f3fe608060405234801561001057600080fd5b50600436106100935760003560e01c806391f366331161006657806391f3663314610127578063a867b8461461013a578063ac2f00741461014d578063c6e36a3214610173578063f0114ad11461019e57600080fd5b80632b7865711461009857806374417bf4146100b457806386c3ac60146100f25780638915b3fb14610107575b600080fd5b6100a160005481565b6040519081526020015b60405180910390f35b6100e26100c2366004610a39565b600460209081526000928352604080842090915290825290205460ff1681565b60405190151581526020016100ab565b610105610100366004610b12565b6101be565b005b61011a610115366004610c45565b6103b5565b6040516100ab9190610ca4565b6100a1610135366004610a39565b6104a1565b610105610148366004610d06565b6104c2565b61016061015b366004610c45565b61075d565b6040516100ab9796959493929190610d86565b6100a1610181366004610a39565b600360209081526000928352604080842090915290825290205481565b6101b16101ac366004610a39565b6108bb565b6040516100ab9190610de7565b6002835110156102155760405162461bcd60e51b815260206004820152601b60248201527f4174206c656173742032206f7074696f6e73207265717569726564000000000060448201526064015b60405180910390fd5b6000811161025c5760405162461bcd60e51b815260206004820152601460248201527304475726174696f6e206d757374206265203e20360641b604482015260640161020c565b60008054818061026b83610e17565b909155509050600061027d8342610e30565b6040805160e0810182523381526001600160a01b038a81166020808401918252838501888152606085018d8152608086018c905260a08601889052600160c0870181905260008b81529381905296909220855181549086166001600160a01b03199182161782559351968101805497909516969093169590951790925592516002840155519293509160038201906103159082610ecc565b506080820151600482019061032a9082610ecc565b5060a0820151600582015560c0909101516006909101805460ff19169115159190911790556000828152600260209081526040909120865161036e92880190610974565b507f9dbafd4116dcead87280b4bad16e92c851a647fbf87a77e05cf6b29c8fcdc33c828888846040516103a49493929190610f8c565b60405180910390a150505050505050565b606060026000838152602001908152602001600020805480602002602001604051908101604052809291908181526020016000905b8282101561049657838290600052602060002001805461040990610e43565b80601f016020809104026020016040519081016040528092919081815260200182805461043590610e43565b80156104825780601f1061045757610100808354040283529160200191610482565b820191906000526020600020905b81548152906001019060200180831161046557829003601f168201915b5050505050815260200190600101906103ea565b505050509050919050565b60008281526003602090815260408083208484529091529020545b92915050565b6000848152600160205260409020600681015460ff1661051a5760405162461bcd60e51b8152602060048201526013602482015272141bdb1b08191bd95cc81b9bdd08195e1a5cdd606a1b604482015260640161020c565b806005015442106105605760405162461bcd60e51b815260206004820152601060248201526f159bdd1a5b99c81a5cc818db1bdcd95960821b604482015260640161020c565b60008581526002602052604090205484106105ae5760405162461bcd60e51b815260206004820152600e60248201526d24b73b30b634b21037b83a34b7b760911b604482015260640161020c565b600181015460405163c945924960e01b81526001600160a01b03909116906000908190839063c9459249906105eb908b908a908a90600401610fc7565b60408051808303816000875af1158015610609573d6000803e3d6000fd5b505050506040513d601f19601f8201168201806040525081019061062d9190610ffd565b91509150816106715760405162461bcd60e51b815260206004820152601060248201526f24b73b30b634b2102d2590383937b7b360811b604482015260640161020c565b600088815260046020908152604080832084845290915290205460ff16156106cb5760405162461bcd60e51b815260206004820152600d60248201526c105b1c9958591e481d9bdd1959609a1b604482015260640161020c565b60008881526004602090815260408083208484528252808320805460ff191660019081179091558b8452600383528184208b85529092528220805491929091610715908490610e30565b909155505060408051898152602081018990527fc31875ef3ed5138b71a0c1da7e494bc4d2ba4f567084ea481ec9c45f3a93948b910160405180910390a15050505050505050565b600160208190526000918252604090912080549181015460028201546003830180546001600160a01b039586169590931693919261079a90610e43565b80601f01602080910402602001604051908101604052809291908181526020018280546107c690610e43565b80156108135780601f106107e857610100808354040283529160200191610813565b820191906000526020600020905b8154815290600101906020018083116107f657829003601f168201915b50505050509080600401805461082890610e43565b80601f016020809104026020016040519081016040528092919081815260200182805461085490610e43565b80156108a15780601f10610876576101008083540402835291602001916108a1565b820191906000526020600020905b81548152906001019060200180831161088457829003601f168201915b50505050600583015460069093015491929160ff16905087565b600260205281600052604060002081815481106108d757600080fd5b906000526020600020016000915091505080546108f390610e43565b80601f016020809104026020016040519081016040528092919081815260200182805461091f90610e43565b801561096c5780601f106109415761010080835404028352916020019161096c565b820191906000526020600020905b81548152906001019060200180831161094f57829003601f168201915b505050505081565b8280548282559060005260206000209081019282156109ba579160200282015b828111156109ba57825182906109aa9082610ecc565b5091602001919060010190610994565b506109c69291506109ca565b5090565b808211156109c65760006109de82826109e7565b506001016109ca565b5080546109f390610e43565b6000825580601f10610a03575050565b601f016020900490600052602060002090810190610a219190610a24565b50565b5b808211156109c65760008155600101610a25565b60008060408385031215610a4c57600080fd5b50508035926020909101359150565b634e487b7160e01b600052604160045260246000fd5b604051601f8201601f1916810167ffffffffffffffff81118282101715610a9a57610a9a610a5b565b604052919050565b600082601f830112610ab357600080fd5b813567ffffffffffffffff811115610acd57610acd610a5b565b610ae0601f8201601f1916602001610a71565b818152846020838601011115610af557600080fd5b816020850160208301376000918101602001919091529392505050565b600080600080600060a08688031215610b2a57600080fd5b85356001600160a01b0381168114610b4157600080fd5b945060208681013567ffffffffffffffff80821115610b5f57600080fd5b610b6b8a838b01610aa2565b96506040890135915080821115610b8157600080fd5b818901915089601f830112610b9557600080fd5b813581811115610ba757610ba7610a5b565b8060051b610bb6858201610a71565b918252838101850191858101908d841115610bd057600080fd5b86860192505b83831015610c0c57823585811115610bee5760008081fd5b610bfc8f89838a0101610aa2565b8352509186019190860190610bd6565b98505050506060890135925080831115610c2557600080fd5b5050610c3388828901610aa2565b95989497509295608001359392505050565b600060208284031215610c5757600080fd5b5035919050565b6000815180845260005b81811015610c8457602081850181015186830182015201610c68565b506000602082860101526020601f19601f83011685010191505092915050565b6000602080830181845280855180835260408601915060408160051b870101925083870160005b82811015610cf957603f19888603018452610ce7858351610c5e565b94509285019290850190600101610ccb565b5092979650505050505050565b60008060008060608587031215610d1c57600080fd5b8435935060208501359250604085013567ffffffffffffffff80821115610d4257600080fd5b818701915087601f830112610d5657600080fd5b813581811115610d6557600080fd5b886020828501011115610d7757600080fd5b95989497505060200194505050565b6001600160a01b038881168252871660208201526040810186905260e060608201819052600090610db990830187610c5e565b8281036080840152610dcb8187610c5e565b60a0840195909552505090151560c09091015295945050505050565b602081526000610dfa6020830184610c5e565b9392505050565b634e487b7160e01b600052601160045260246000fd5b600060018201610e2957610e29610e01565b5060010190565b808201808211156104bc576104bc610e01565b600181811c90821680610e5757607f821691505b602082108103610e7757634e487b7160e01b600052602260045260246000fd5b50919050565b601f821115610ec757600081815260208120601f850160051c81016020861015610ea45750805b601f850160051c820191505b81811015610ec357828155600101610eb0565b5050505b505050565b815167ffffffffffffffff811115610ee657610ee6610a5b565b610efa81610ef48454610e43565b84610e7d565b602080601f831160018114610f2f5760008415610f175750858301515b600019600386901b1c1916600185901b178555610ec3565b600085815260208120601f198616915b82811015610f5e57888601518255948401946001909101908401610f3f565b5085821015610f7c5787850151600019600388901b60f8161c191681555b5050505050600190811b01905550565b8481526001600160a01b0384166020820152608060408201819052600090610fb690830185610c5e565b905082606083015295945050505050565b83815260406020820152816040820152818360608301376000818301606090810191909152601f909201601f1916010192915050565b6000806040838503121561101057600080fd5b8251801515811461102057600080fd5b602093909301519294929350505056fea26469706673582212203a26ec70febbb98cce5310cc3eb42a3a18369dbb7df87728fc86f7f3ac58417964736f6c63430008150033",
  "linkReferences": {},
  "deployedLinkReferences": {}
}