{
  "_format": "hh-sol-artifact-1",
  "contractName": "VotingHub",
  "sourceName": "contracts/Voting.sol",
  "abi": [
    {
      "inputs": [
        {
          "internalType": "address",
          "name": "forwarder",
          "type": "address"
        }
      ],
      "stateMutability": "nonpayable",
      "type": "constructor"
    },
    {
      "inputs": [],
      "name": "AccessControlBadConfirmation",
      "type": "error"
    },
    {
      "inputs": [
        {
          "internalType": "address",
          "name": "account",
          "type": "address"
        },
        {
          "internalType": "bytes32",
          "name": "neededRole",
          "type": "bytes32"
        }
      ],
      "name": "AccessControlUnauthorizedAccount",
      "type": "error"
    },
    {
      "inputs": [],
      "name": "ReentrancyGuardReentrantCall",
      "type": "error"
    },
    {
      "anonymous": false,
      "inputs": [
        {
          "indexed": true,
          "internalType": "address",
          "name": "newForwarder",
          "type": "address"
        }
      ],
      "name": "ForwarderUpdated",
      "type": "event"
    },
    {
      "anonymous": false,
      "inputs": [
        {
          "indexed": true,
          "internalType": "address",
          "name": "admin",
          "type": "address"
        },
        {
          "indexed": false,
          "internalType": "uint256",
          "name": "amount",
          "type": "uint256"
        }
      ],
      "name": "FundsWithdrawn",
      "type": "event"
    },
    {
      "anonymous": false,
      "inputs": [
        {
          "indexed": true,
          "internalType": "uint256",
          "name": "pollId",
          "type": "uint256"
        },
        {
          "indexed": false,
          "internalType": "uint256",
          "name": "amount",
          "type": "uint256"
        }
      ],
      "name": "GasFunded",
      "type": "event"
    },
    {
      "anonymous": false,
      "inputs": [
        {
          "indexed": true,
          "internalType": "uint256",
          "name": "pollId",
          "type": "uint256"
        },
        {
          "indexed": true,
          "internalType": "address",
          "name": "creator",
          "type": "address"
        },
        {
          "indexed": false,
          "internalType": "address",
          "name": "verifier",
          "type": "address"
        },
        {
          "indexed": false,
          "internalType": "bool",
          "name": "isSponsored",
          "type": "bool"
        }
      ],
      "name": "PollCreated",
      "type": "event"
    },
    {
      "anonymous": false,
      "inputs": [
        {
          "indexed": true,
          "internalType": "bytes32",
          "name": "role",
          "type": "bytes32"
        },
        {
          "indexed": true,
          "internalType": "bytes32",
          "name": "previousAdminRole",
          "type": "bytes32"
        },
        {
          "indexed": true,
          "internalType": "bytes32",
          "name": "newAdminRole",
          "type": "bytes32"
        }
      ],
      "name": "RoleAdminChanged",
      "type": "event"
    },
    {
      "anonymous": false,
      "inputs": [
        {
          "indexed": true,
          "internalType": "bytes32",
          "name": "role",
          "type": "bytes32"
        },
        {
          "indexed": true,
          "internalType": "address",
          "name": "account",
          "type": "address"
        },
        {
          "indexed": true,
          "internalType": "address",
          "name": "sender",
          "type": "address"
        }
      ],
      "name": "RoleGranted",
      "type": "event"
    },
    {
      "anonymous": false,
      "inputs": [
        {
          "indexed": true,
          "internalType": "bytes32",
          "name": "role",
          "type": "bytes32"
        },
        {
          "indexed": true,
          "internalType": "address",
          "name": "account",
          "type": "address"
        },
        {
          "indexed": true,
          "internalType": "address",
          "name": "sender",
          "type": "address"
        }
      ],
      "name": "RoleRevoked",
      "type": "event"
    },
    {
      "anonymous": false,
      "inputs": [
        {
          "indexed": true,
          "internalType": "uint256",
          "name": "pollId",
          "type": "uint256"
        },
        {
          "indexed": true,
          "internalType": "uint256",
          "name": "optionId",
          "type": "uint256"
        }
      ],
      "name": "VoteCast",
      "type": "event"
    },
    {
      "inputs": [],
      "name": "DEFAULT_ADMIN_ROLE",
      "outputs": [
        {
          "internalType": "bytes32",
          "name": "",
          "type": "bytes32"
        }
      ],
      "stateMutability": "view",
      "type": "function"
    },
    {
      "inputs": [],
      "name": "GAS_CREDIT_PER_VOTE",
      "outputs": [
        {
          "internalType": "uint256",
          "name": "",
          "type": "uint256"
        }
      ],
      "stateMutability": "view",
      "type": "function"
    },
    {
      "inputs": [],
      "name": "ORGANIZER_ROLE",
      "outputs": [
        {
          "internalType": "bytes32",
          "name": "",
          "type": "bytes32"
        }
      ],
      "stateMutability": "view",
      "type": "function"
    },
    {
      "inputs": [],
      "name": "VERIFIER_GAS_LIMIT",
      "outputs": [
        {
          "internalType": "uint256",
          "name": "",
          "type": "uint256"
        }
      ],
      "stateMutability": "view",
      "type": "function"
    },
    {
      "inputs": [
        {
          "internalType": "address",
          "name": "_verifier",
          "type": "address"
        },
        {
          "internalType": "string",
          "name": "_question",
          "type": "string"
        },
        {
          "internalType": "string[]",
          "name": "_options",
          "type": "string[]"
        },
        {
          "internalType": "string",
          "name": "_metadataURI",
          "type": "string"
        },
        {
          "internalType": "uint64",
          "name": "_durationInSeconds",
          "type": "uint64"
        },
        {
          "internalType": "bool",
          "name": "_isSponsored",
          "type": "bool"
        }
      ],
      "name": "createPoll",
      "outputs": [],
      "stateMutability": "nonpayable",
      "type": "function"
    },
    {
      "inputs": [
        {
          "internalType": "uint256",
          "name": "_pollId",
          "type": "uint256"
        }
      ],
      "name": "fundPollGas",
      "outputs": [],
      "stateMutability": "payable",
      "type": "function"
    },
    {
      "inputs": [
        {
          "internalType": "uint256",
          "name": "_pollId",
          "type": "uint256"
        }
      ],
      "name": "getOptions",
      "outputs": [
        {
          "internalType": "string[]",
          "name": "",
          "type": "string[]"
        }
      ],
      "stateMutability": "view",
      "type": "function"
    },
    {
      "inputs": [
        {
          "internalType": "bytes32",
          "name": "role",
          "type": "bytes32"
        }
      ],
      "name": "getRoleAdmin",
      "outputs": [
        {
          "internalType": "bytes32",
          "name": "",
          "type": "bytes32"
        }
      ],
      "stateMutability": "view",
      "type": "function"
    },
    {
      "inputs": [
        {
          "internalType": "uint256",
          "name": "_pollId",
          "type": "uint256"
        },
        {
          "internalType": "uint256",
          "name": "_optionId",
          "type": "uint256"
        }
      ],
      "name": "getVotes",
      "outputs": [
        {
          "internalType": "uint256",
          "name": "",
          "type": "uint256"
        }
      ],
      "stateMutability": "view",
      "type": "function"
    },
    {
      "inputs": [
        {
          "internalType": "bytes32",
          "name": "role",
          "type": "bytes32"
        },
        {
          "internalType": "address",
          "name": "account",
          "type": "address"
        }
      ],
      "name": "grantRole",
      "outputs": [],
      "stateMutability": "nonpayable",
      "type": "function"
    },
    {
      "inputs": [
        {
          "internalType": "bytes32",
          "name": "role",
          "type": "bytes32"
        },
        {
          "internalType": "address",
          "name": "account",
          "type": "address"
        }
      ],
      "name": "hasRole",
      "outputs": [
        {
          "internalType": "bool",
          "name": "",
          "type": "bool"
        }
      ],
      "stateMutability": "view",
      "type": "function"
    },
    {
      "inputs": [
        {
          "internalType": "uint256",
          "name": "",
          "type": "uint256"
        },
        {
          "internalType": "bytes32",
          "name": "",
          "type": "bytes32"
        }
      ],
      "name": "hasVoted",
      "outputs": [
        {
          "internalType": "bool",
          "name": "",
          "type": "bool"
        }
      ],
      "stateMutability": "view",
      "type": "function"
    },
    {
      "inputs": [
        {
          "internalType": "address",
          "name": "forwarder",
          "type": "address"
        }
      ],
      "name": "isTrustedForwarder",
      "outputs": [
        {
          "internalType": "bool",
          "name": "",
          "type": "bool"
        }
      ],
      "stateMutability": "view",
      "type": "function"
    },
    {
      "inputs": [],
      "name": "nextPollId",
      "outputs": [
        {
          "internalType": "uint256",
          "name": "",
          "type": "uint256"
        }
      ],
      "stateMutability": "view",
      "type": "function"
    },
    {
      "inputs": [
        {
          "internalType": "uint256",
          "name": "",
          "type": "uint256"
        }
      ],
      "name": "pollGasBalances",
      "outputs": [
        {
          "internalType": "uint256",
          "name": "",
          "type": "uint256"
        }
      ],
      "stateMutability": "view",
      "type": "function"
    },
    {
      "inputs": [
        {
          "internalType": "uint256",
          "name": "",
          "type": "uint256"
        },
        {
          "internalType": "uint256",
          "name": "",
          "type": "uint256"
        }
      ],
      "name": "pollOptions",
      "outputs": [
        {
          "internalType": "string",
          "name": "",
          "type": "string"
        }
      ],
      "stateMutability": "view",
      "type": "function"
    },
    {
      "inputs": [
        {
          "internalType": "uint256",
          "name": "",
          "type": "uint256"
        }
      ],
      "name": "polls",
      "outputs": [
        {
          "internalType": "address",
          "name": "creator",
          "type": "address"
        },
        {
          "internalType": "bool",
          "name": "exists",
          "type": "bool"
        },
        {
          "internalType": "bool",
          "name": "isSponsored",
          "type": "bool"
        },
        {
          "internalType": "uint64",
          "name": "endTime",
          "type": "uint64"
        },
        {
          "internalType": "address",
          "name": "verifierContract",
          "type": "address"
        },
        {
          "internalType": "string",
          "name": "question",
          "type": "string"
        },
        {
          "internalType": "string",
          "name": "metadataURI",
          "type": "string"
        }
      ],
      "stateMutability": "view",
      "type": "function"
    },
    {
      "inputs": [
        {
          "internalType": "bytes32",
          "name": "role",
          "type": "bytes32"
        },
        {
          "internalType": "address",
          "name": "callerConfirmation",
          "type": "address"
        }
      ],
      "name": "renounceRole",
      "outputs": [],
      "stateMutability": "nonpayable",
      "type": "function"
    },
    {
      "inputs": [
        {
          "internalType": "bytes32",
          "name": "role",
          "type": "bytes32"
        },
        {
          "internalType": "address",
          "name": "account",
          "type": "address"
        }
      ],
      "name": "revokeRole",
      "outputs": [],
      "stateMutability": "nonpayable",
      "type": "function"
    },
    {
      "inputs": [
        {
          "internalType": "bytes4",
          "name": "interfaceId",
          "type": "bytes4"
        }
      ],
      "name": "supportsInterface",
      "outputs": [
        {
          "internalType": "bool",
          "name": "",
          "type": "bool"
        }
      ],
      "stateMutability": "view",
      "type": "function"
    },
    {
      "inputs": [
        {
          "internalType": "address",
          "name": "newForwarder",
          "type": "address"
        }
      ],
      "name": "updateForwarder",
      "outputs": [],
      "stateMutability": "nonpayable",
      "type": "function"
    },
    {
      "inputs": [
        {
          "internalType": "uint256",
          "name": "_pollId",
          "type": "uint256"
        },
        {
          "internalType": "uint256",
          "name": "_optionId",
          "type": "uint256"
        },
        {
          "internalType": "bytes",
          "name": "_proofData",
          "type": "bytes"
        }
      ],
      "name": "vote",
      "outputs": [],
      "stateMutability": "nonpayable",
      "type": "function"
    },
    {
      "inputs": [
        {
          "internalType": "uint256",
          "name": "",
          "type": "uint256"
        },
        {
          "internalType": "uint256",
          "name": "",
          "type": "uint256"
        }
      ],
      "name": "votes",
      "outputs": [
        {
          "internalType": "uint256",
          "name": "",
          "type": "uint256"
        }
      ],
      "stateMutability": "view",
      "type": "function"
    },
    {
      "inputs": [
        {
          "internalType": "uint256",
          "name": "_amount",
          "type": "uint256"
        },
        {
          "internalType": "address payable",
          "name": "_to",
          "type": "address"
        }
      ],
      "name": "withdrawFunds",
      "outputs": [],
      "stateMutability": "nonpayable",
      "type": "function"
    }
  ],
  "bytecode": "0x6080346200009757601f62001c0338819003918201601f19168301916001600160401b038311848410176200009c578084926020946040528339810103126200009757516001600160a01b0381169081900362000097576001600055600280546001600160a01b0319169190911790556200007a33620000b2565b50620000863362000140565b506040516119bb9081620002288239f35b600080fd5b634e487b7160e01b600052604160045260246000fd5b6001600160a01b0390811660008181527fa6eef7e35abe7026729641147f7915573c7e97b47efa546f5f6e3230263bcb49602052604081205490929060ff166200013b5782805260016020526040832082845260205260408320600160ff1982541617905562000121620001f0565b169160008051602062001be38339815191528180a4600190565b505090565b6001600160a01b0390811660008181527feb582435d52ef99f7afca0cd57330feb3340a434ae64853903dd3b38ac075cd6602052604081205490927f4d2e7a1e3f5dd6e203f087b15756ccf0e4ccd947fe1b639a38540089a1e47f639160ff16620001ea5760008051602062001be38339815191529082855260016020526040852084865260205260408520600160ff19825416179055620001e1620001f0565b169380a4600190565b50505090565b6002546001600160a01b03163314806200021b575b15620002175736601319013560601c90565b3390565b5060143610156200020556fe608080604052600436101561001357600080fd5b60003560e01c90816301ffc9a71461149b575080632291237e146113f9578063248a9ca3146113ca5780632b786571146113ac5780632f2ff15d1461136d57806336568abe1461131c5780633ae4ec0c146112fa5780633f75bb6a14611220578063572b6c05146111eb57806374417bf4146111ac578063744bfe61146110325780637909cb5914610ff75780637e70376114610fcb578063801579c014610fad5780638915b3fb14610eca57806391d1485414610e7d57806391f36633146109b2578063a217fddf14610e61578063a867b84614610a93578063ac2f0074146109e5578063c6e36a32146109b2578063d547741f14610971578063e8aae7c81461017f5763f0114ad11461012757600080fd5b3461017a576101353661155a565b9060005260066020526040600020805482101561017a5761017691610162916000526020600020016115f8565b60405191829160208352602083019061151a565b0390f35b600080fd5b3461017a5760c036600319011261017a576101986114ee565b6024356001600160401b03811161017a576101b7903690600401611570565b916001600160401b036044351161017a5736602360443501121561017a576001600160401b03604435600401351161017a573660246044356004013560051b60443501011161017a576064356001600160401b03811161017a5761021f903690600401611570565b608493919335906001600160401b038216820361017a5760a43595861515870361017a5761024b61183e565b6001600160a01b031660008181527feb582435d52ef99f7afca0cd57330feb3340a434ae64853903dd3b38ac075cd6602052604090205460ff16156109335750600260443560040135106108ee576001600160401b038316156108b2576001600160a01b0385161561086d5760045495600019871461085757600187016004556001600160401b038085168142160111610857576102e761183e565b93604051948560e08101106001600160401b0360e0880111176107495760e0860160405260018060a01b0316855261036a60208601926001845261035b60408801988c15158a526001600160401b038060608b01961681421601168552608089019660018060a01b038c168852369161188d565b9560a08801968752369161188d565b60c08601526000888152600560205260409020855181549351975192516001600160f01b03199094166001600160a01b039182161797151560a01b60ff60a01b169790971791151560a81b60ff60a81b169190911760b09290921b67ffffffffffffffff60b01b1691909117815590516001820180546001600160a01b0319169190951617909355518051906001600160401b0382116107495761041e82610415600287015461159d565b600287016118db565b602090601f83116001146107e45791806104539260c095946000926107d9575b50508160011b916000199060031b1c19161790565b60028401555b01518051906001600160401b038211610749576104868261047d600386015461159d565b600386016118db565b602090601f831160011461076a5791806104b99260039460009261075f5750508160011b916000199060031b1c19161790565b9101555b81600052600660205260406000206801000000000000000060443560040135116107495780546004604435013580835581116106ce575b506000908152602081206044356024015b60443560040135831061056457507f62c77fe8b9705aca0ae405449bcdb24a797c99cc5050f200106eaf9aae2ee617926040925090506001600160a01b0361054b61183e565b169482519160018060a01b0316825215156020820152a3005b6044353603604219018135121561017a576001600160401b03602482356044350101351161017a57604480358235016024810135360391011361017a576105be602482356044350101356105b8845461159d565b846118db565b6000601f602483356044350101351160011461063057602060019261060f84936000906024843560443501013561061e575b5060248335604435010135908160011b916000199060031b1c19161790565b85555b01920192019190610505565b6044915083358235010101358b6105f0565b8260005260206000209060005b60443584350160240135601f191681106106af5750600192839260209260443583350160240135601f19811610610686575b50508260248235604435010135811b018555610612565b604460001960f860248635843501013560031b161c19918435823501010135169055898061066f565b909160206001819260448688358235010101358155019301910161063d565b816000526020600020906044356004013582015b81830181106106f25750506104f4565b806106ff6001925461159d565b8061070c575b50016106e2565b601f811183146107225750600081555b88610705565b600090828252610740601f60208420920160051c82018583016118c4565b8183555561071c565b634e487b7160e01b600052604160045260246000fd5b01519050888061043e565b906003840160005260206000209160005b601f19851681106107c15750918391600193600395601f198116106107a9575b505050811b019101556104bd565b015160001983861b60f8161c1916905587808061079b565b9192602060018192868501518155019401920161077b565b01519050898061043e565b906002850160005260206000209160005b601f198516811061083f575091839160019360c09695601f19811610610826575b505050811b016002840155610459565b015160001960f88460031b161c19169055888080610816565b919260206001819286850151815501940192016107f5565b634e487b7160e01b600052601160045260246000fd5b60405162461bcd60e51b815260206004820152601860248201527f496e76616c6964207665726966696572206164647265737300000000000000006044820152606490fd5b60405162461bcd60e51b815260206004820152601460248201527304475726174696f6e206d757374206265203e20360641b6044820152606490fd5b60405162461bcd60e51b815260206004820152601b60248201527f4174206c656173742032206f7074696f6e7320726571756972656400000000006044820152606490fd5b6044906040519063e2517d3f60e01b825260048201527f4d2e7a1e3f5dd6e203f087b15756ccf0e4ccd947fe1b639a38540089a1e47f636024820152fd5b3461017a57604036600319011261017a576109b0600435610990611504565b908060005260016020526109ab600160406000200154611705565b6117c9565b005b3461017a576109c03661155a565b9060005260076020526040600020906000526020526020604060002054604051908152f35b3461017a57602036600319011261017a576004356000526005602052604060002080549061017660018060a01b0391610a858360018301541691610a376003610a30600284016115f8565b92016115f8565b926001600160401b036040519788978116885260ff8160a01c161515602089015260ff8160a81c161515604089015260b01c166060870152608086015260e060a086015260e085019061151a565b9083820360c085015261151a565b3461017a57606036600319011261017a5760446001600160401b0360248035600435843584811161017a57610acc903690600401611570565b610ad4611962565b8260005260209560058752604060002090815490610af760ff8360a01c16611920565b8160b01c16421015610e2b578460005260068852604060002054861015610df75792868993879360ff889760a81c16610d4e575b60409596826000936084936001808060a01b03910154169660608a519b8c9a8b998a9763e5a69ee960e01b89526004890152870152850152816064850152848401378181018301849052601f01601f19168101030192622625a0f19081600091600093610d0b575b50610bee5760405162461bcd60e51b815260048101879052602a818701527f56657269666965722063616c6c206661696c6564206f7220657863656564656481890152690819d85cc81b1a5b5a5d60b21b6064820152608490fd5b849187879215610cd6578460005260088352604060002082600052835260ff60406000205416610ca45750836000526008825260406000209060005281526040600020600160ff1982541617905582600052600781526040600020908460005252604060002080549160018301809311610c905750557fc31875ef3ed5138b71a0c1da7e494bc4d2ba4f567084ea481ec9c45f3a93948b600080a36001600055005b634e487b7160e01b60009081526011600452fd5b6c105b1c9958591e481d9bdd1959609a1b9150600d6064946040519462461bcd60e51b86526004860152840152820152fd5b6f24b73b30b634b2102d2590383937b7b360811b915060106064946040519462461bcd60e51b86526004860152840152820152fd5b915091506040813d604011610d46575b81610d28604093836115d7565b8101031261017a57805190811515820361017a578601519188610b93565b3d9150610d1b565b935093505092600052600387526601c6bf5263400060406000205410610db457836000526003875260406000208054906601c6bf52633fff198201918211610d9f5755839288928692889190610b2b565b87634e487b7160e01b60005260116004526000fd5b60405162461bcd60e51b815260048101889052601a818801527f494e534f4c56454e543a205265736572766f697220656d707479000000000000818a0152606490fd5b60405162461bcd60e51b815260048101899052600e818901526d24b73b30b634b21037b83a34b7b760911b818b0152606490fd5b60405162461bcd60e51b8152600481018990526010818901526f159bdd1a5b99c81a5cc818db1bdcd95960821b818b0152606490fd5b3461017a57600036600319011261017a57602060405160008152f35b3461017a57604036600319011261017a57610e96611504565b600435600052600160205260406000209060018060a01b0316600052602052602060ff604060002054166040519015158152f35b3461017a5760208060031936011261017a576004356000526006815260406000208054906001600160401b03821161074957829060405192610f11838260051b01856115d7565b8084528284018092600052836000206000915b838310610f8b5750505050604051918083019381845251809452604083019360408160051b85010192916000955b828710610f5f5785850386f35b909192938280610f7b600193603f198a8203018652885161151a565b9601920196019592919092610f52565b6001868192610f9c859a999a6115f8565b815201920192019190959495610f24565b3461017a57600036600319011261017a576020604051622625a08152f35b3461017a57602036600319011261017a5760043560005260036020526020604060002054604051908152f35b3461017a57600036600319011261017a5760206040517f4d2e7a1e3f5dd6e203f087b15756ccf0e4ccd947fe1b639a38540089a1e47f638152f35b3461017a57604036600319011261017a576024356001600160a01b038116906004359082900361017a5761106461169c565b61106c611962565b81156111675780471061112257600080808084865af13d1561111d573d61109281611872565b906110a060405192836115d7565b8152600060203d92013e5b156110e25760207feaff4b37086828766ad3268786972c0cd24259d4c87a80f9d3963a3c3d999b0d91604051908152a26001600055005b60405162461bcd60e51b815260206004820152601360248201527211551217d514905394d1915497d19052531151606a1b6044820152606490fd5b6110ab565b60405162461bcd60e51b815260206004820152601d60248201527f496e73756666696369656e7420636f6e74726163742062616c616e63650000006044820152606490fd5b60405162461bcd60e51b815260206004820152601b60248201527f496e76616c69642064657374696e6174696f6e206164647265737300000000006044820152606490fd5b3461017a57604036600319011261017a5760043560005260086020526040600020602435600052602052602060ff604060002054166040519015158152f35b3461017a57602036600319011261017a5760206112066114ee565b6002546040516001600160a01b0392831691909216148152f35b60208060031936011261017a5760043590816000526005815261124d60ff60406000205460a01c16611920565b816000526005815260ff60406000205460a81c16156112ac5781600052600381526040600020908154348101809111610857577f9e76a76e49aadf8c8182a84572ba8f29790032e342282c26a8cc8bf69ef386f49255604051348152a2005b6084906040519062461bcd60e51b82526004820152602160248201527f506f6c6c206973206e6f742073657420746f2073706f6e736f726564206d6f646044820152606560f81b6064820152fd5b3461017a57600036600319011261017a5760206040516601c6bf526340008152f35b3461017a57604036600319011261017a57611335611504565b6001600160a01b038061134661183e565b169082160361135b576109b0906004356117c9565b60405163334bd91960e11b8152600490fd5b3461017a57604036600319011261017a576109b060043561138c611504565b908060005260016020526113a7600160406000200154611705565b61173f565b3461017a57600036600319011261017a576020600454604051908152f35b3461017a57602036600319011261017a5760043560005260016020526020600160406000200154604051908152f35b3461017a57602036600319011261017a576114126114ee565b61141a61169c565b6001600160a01b0316801561146257600280546001600160a01b031916821790557f9d90a82ec1d038d4e13317a0eb136f9c65b7ed42156fc204ec4b7c4731e73950600080a2005b60405162461bcd60e51b815260206004820152601160248201527024b73b30b634b2103337b93bb0b93232b960791b6044820152606490fd5b3461017a57602036600319011261017a576004359063ffffffff60e01b821680920361017a57602091637965db0b60e01b81149081156114dd575b5015158152f35b6301ffc9a760e01b149050836114d6565b600435906001600160a01b038216820361017a57565b602435906001600160a01b038216820361017a57565b919082519283825260005b848110611546575050826000602080949584010152601f8019910116010190565b602081830181015184830182015201611525565b604090600319011261017a576004359060243590565b9181601f8401121561017a578235916001600160401b03831161017a576020838186019501011161017a57565b90600182811c921680156115cd575b60208310146115b757565b634e487b7160e01b600052602260045260246000fd5b91607f16916115ac565b90601f801991011681019081106001600160401b0382111761074957604052565b9060405191826000825461160b8161159d565b90818452602094600191828116908160001461167a575060011461163b575b505050611639925003836115d7565b565b600090815285812095935091905b818310611662575050611639935082010138808061162a565b85548884018501529485019487945091830191611649565b9250505061163994925060ff191682840152151560051b82010138808061162a565b6116a461183e565b6001600160a01b031660008181527fa6eef7e35abe7026729641147f7915573c7e97b47efa546f5f6e3230263bcb49602052604081205460ff16156116e7575050565b604492506040519163e2517d3f60e01b835260048301526024820152fd5b61170d61183e565b9080600052600160205260406000209160018060a01b0316918260005260205260ff60406000205416156116e7575050565b60008181526001602090815260408083206001600160a01b039586168085529252822054919390929160ff166117c3577f2f8788117e7eff1d82e926ec794901d17c78024a50270940304540a733656f0d9082855260016020526040852084865260205260408520600160ff198254161790556117ba61183e565b169380a4600190565b50505090565b60008181526001602090815260408083206001600160a01b039586168085529252822054919390929160ff16156117c3577ff6391f5c32d9c69d2a47ea670b442974b53935d1edc7fd64eb21e047a839171b908285526001602052604085208486526020526040852060ff1981541690556117ba5b6002546001600160a01b0316331480611867575b156118635736601319013560601c90565b3390565b506014361015611852565b6001600160401b03811161074957601f01601f191660200190565b92919261189982611872565b916118a760405193846115d7565b82948184528183011161017a578281602093846000960137010152565b8181106118cf575050565b600081556001016118c4565b9190601f81116118ea57505050565b611639926000526020600020906020601f840160051c83019310611916575b601f0160051c01906118c4565b9091508190611909565b1561192757565b60405162461bcd60e51b8152602060048201526013602482015272141bdb1b08191bd95cc81b9bdd08195e1a5cdd606a1b6044820152606490fd5b600260005414611973576002600055565b604051633ee5aeb560e01b8152600490fdfea2646970667358221220561fcca55089ec1a8ee8bfb9da59048aeaebb98ef36f94c4db7a6649ecf2b18064736f6c634300081500332f8788117e7eff1d82e926ec794901d17c78024a50270940304540a733656f0d",
  "linkReferences": {},
  "deployedLinkReferences": {}
}