{
  "_format": "hh-sol-artifact-1",
  "contractName": "CustomKycVerifier",
  "sourceName": "contracts/CustomKycVerifier.sol",
  "abi": [
    {
      "inputs": [
        {
          "internalType": "address",
          "name": "_baseVerifier",
          "type": "address"
        },
        {
          "internalType": "uint256",
          "name": "_merkleRoot",
          "type": "uint256"
        },
        {
          "internalType": "uint256",
          "name": "_minAge",
          "type": "uint256"
        }
      ],
      "stateMutability": "nonpayable",
      "type": "constructor"
    },
    {
      "inputs": [],
      "name": "baseVerifier",
      "outputs": [
        {
          "internalType": "contract IGroth16Verifier",
          "name": "",
          "type": "address"
        }
      ],
      "stateMutability": "view",
      "type": "function"
    },
    {
      "inputs": [],
      "name": "expectedMerkleRoot",
      "outputs": [
        {
          "internalType": "uint256",
          "name": "",
          "type": "uint256"
        }
      ],
      "stateMutability": "view",
      "type": "function"
    },
    {
      "inputs": [],
      "name": "expectedMinAge",
      "outputs": [
        {
          "internalType": "uint256",
          "name": "",
          "type": "uint256"
        }
      ],
      "stateMutability": "view",
      "type": "function"
    },
    {
      "inputs": [
        {
          "internalType": "uint256",
          "name": "pollId",
          "type": "uint256"
        },
        {
          "internalType": "bytes",
          "name": "proofData",
          "type": "bytes"
        }
      ],
      "name": "verifyProof",
      "outputs": [
        {
          "internalType": "bool",
          "name": "",
          "type": "bool"
        },
        {
          "internalType": "bytes32",
          "name": "",
          "type": "bytes32"
        }
      ],
      "stateMutability": "view",
      "type": "function"
    }
  ],
  "bytecode": "0x60e060405234801561001057600080fd5b506040516107e23803806107e283398101604081905261002f91610048565b6001600160a01b0390921660805260a05260c05261008b565b60008060006060848603121561005d57600080fd5b83516001600160a01b038116811461007457600080fd5b602085015160409095015190969495509392505050565b60805160a05160c0516107166100cc600039600081816056015261023f01526000818160ba01526101bd01526000818160e101526102d801526107166000f3fe608060405234801561001057600080fd5b506004361061004c5760003560e01c8063ba0968f614610051578063c94592491461008b578063e36b1e02146100b5578063ea4a7bd7146100dc575b600080fd5b6100787f000000000000000000000000000000000000000000000000000000000000000081565b6040519081526020015b60405180910390f35b61009e6100993660046103db565b61011b565b604080519215158352602083019190915201610082565b6100787f000000000000000000000000000000000000000000000000000000000000000081565b6101037f000000000000000000000000000000000000000000000000000000000000000081565b6040516001600160a01b039091168152602001610082565b6000808080808061012e87890189610509565b60208101519397509195509350915089146101b65760405162461bcd60e51b815260206004820152603760248201527f437573746f6d4b796356657269666965723a2050726f6f66206e6f742067656e60448201527f65726174656420666f72207468697320506f6c6c20494400000000000000000060648201526084015b60405180910390fd5b60408101517f0000000000000000000000000000000000000000000000000000000000000000146102385760405162461bcd60e51b815260206004820152602660248201527f437573746f6d4b796356657269666965723a20496e76616c6964204d65726b6c6044820152651948149bdbdd60d21b60648201526084016101ad565b60608101517f0000000000000000000000000000000000000000000000000000000000000000146102be5760405162461bcd60e51b815260206004820152602a60248201527f437573746f6d4b796356657269666965723a2041676520726571756972656d656044820152691b9d081b9bdd081b595d60b21b60648201526084016101ad565b604051635fe8c13b60e01b81526000906001600160a01b037f00000000000000000000000000000000000000000000000000000000000000001690635fe8c13b90610313908890889088908890600401610610565b602060405180830381865afa158015610330573d6000803e3d6000fd5b505050506040513d601f19601f8201168201806040525081019061035491906106b7565b9050806103c95760405162461bcd60e51b815260206004820152603d60248201527f437573746f6d4b796356657269666965723a2043727970746f6772617068696360448201527f2070726f6f66206d617468656d61746963616c6c7920696e76616c696400000060648201526084016101ad565b50516001999098509650505050505050565b6000806000604084860312156103f057600080fd5b83359250602084013567ffffffffffffffff8082111561040f57600080fd5b818601915086601f83011261042357600080fd5b81358181111561043257600080fd5b87602082850101111561044457600080fd5b6020830194508093505050509250925092565b634e487b7160e01b600052604160045260246000fd5b6040805190810167ffffffffffffffff8111828210171561049057610490610457565b60405290565b6040516080810167ffffffffffffffff8111828210171561049057610490610457565b600082601f8301126104ca57600080fd5b6104d261046d565b8060408401858111156104e457600080fd5b845b818110156104fe5780358452602093840193016104e6565b509095945050505050565b60008060008061018080868803121561052157600080fd5b61052b87876104b9565b9450604087605f88011261053e57600080fd5b61054661046d565b8060c089018a81111561055857600080fd5b838a015b8181101561057d5761056e8c826104b9565b8452602090930192840161055c565b5081975061058b8b826104b9565b9650505050508661011f8701126105a157600080fd5b6105a9610496565b9086019080888311156105bb57600080fd5b61010088015b838110156105d95780358352602092830192016105c1565b509598949750929550505050565b8060005b600281101561060a5781518452602093840193909101906001016105eb565b50505050565b610180810161061f82876105e7565b60408083018660005b60028082106106375750610672565b82518460005b8381101561065b57825182526020928301929091019060010161063d565b505050928401925060209190910190600101610628565b5050505061068360c08301856105e7565b61010082018360005b60048110156106ab57815183526020928301929091019060010161068c565b50505095945050505050565b6000602082840312156106c957600080fd5b815180151581146106d957600080fd5b939250505056fea2646970667358221220591a5e6ebfbd4ada3bf24e5adcbdd1a4c7dbfdeb92e895913f0303ff4aa1ce4564736f6c63430008150033",
  "linkReferences": {},
  "deployedLinkReferences": {}
}