{
  "_format": "hh-sol-artifact-1",
  "contractName": "ZKPassportPollWrapper",
  "sourceName": "contracts/VerifierWrapper.sol",
  "abi": [
    {
      "inputs": [
        {
          "internalType": "string",
          "name": "_domain",
          "type": "string"
        },
        {
          "internalType": "uint8",
          "name": "_minAge",
          "type": "uint8"
        },
        {
          "internalType": "string[]",
          "name": "_nationalities",
          "type": "string[]"
        }
      ],
      "stateMutability": "nonpayable",
      "type": "constructor"
    },
    {
      "inputs": [],
      "name": "expectedDomain",
      "outputs": [
        {
          "internalType": "string",
          "name": "",
          "type": "string"
        }
      ],
      "stateMutability": "view",
      "type": "function"
    },
    {
      "inputs": [],
      "name": "expectedMinAge",
      "outputs": [
        {
          "internalType": "uint8",
          "name": "",
          "type": "uint8"
        }
      ],
      "stateMutability": "view",
      "type": "function"
    },
    {
      "inputs": [
        {
          "internalType": "uint256",
          "name": "",
          "type": "uint256"
        }
      ],
      "name": "expectedNationalities",
      "outputs": [
        {
          "internalType": "string",
          "name": "",
          "type": "string"
        }
      ],
      "stateMutability": "view",
      "type": "function"
    },
    {
      "inputs": [
        {
          "internalType": "uint256",
          "name": "pollId",
          "type": "uint256"
        },
        {
          "internalType": "bytes",
          "name": "proofData",
          "type": "bytes"
        }
      ],
      "name": "verifyProof",
      "outputs": [
        {
          "internalType": "bool",
          "name": "",
          "type": "bool"
        },
        {
          "internalType": "bytes32",
          "name": "",
          "type": "bytes32"
        }
      ],
      "stateMutability": "nonpayable",
      "type": "function"
    },
    {
      "inputs": [],
      "name": "zkPassportVerifier",
      "outputs": [
        {
          "internalType": "contract IZKPassportVerifier",
          "name": "",
          "type": "address"
        }
      ],
      "stateMutability": "view",
      "type": "function"
    }
  ],
  "bytecode": "0x60806040523480156200001157600080fd5b506040516200277d3803806200277d833981810160405281019062000037919062000440565b826000908162000048919062000725565b5081600160006101000a81548160ff021916908360ff16021790555080600290805190602001906200007c92919062000086565b505050506200080c565b828054828255906000526020600020908101928215620000d3579160200282015b82811115620000d2578251829081620000c1919062000725565b5091602001919060010190620000a7565b5b509050620000e29190620000e6565b5090565b5b808211156200010a57600081816200010091906200010e565b50600101620000e7565b5090565b5080546200011c9062000514565b6000825580601f1062000130575062000151565b601f01602090049060005260206000209081019062000150919062000154565b5b50565b5b808211156200016f57600081600090555060010162000155565b5090565b6000604051905090565b600080fd5b600080fd5b600080fd5b600080fd5b6000601f19601f8301169050919050565b7f4e487b7100000000000000000000000000000000000000000000000000000000600052604160045260246000fd5b620001dc8262000191565b810181811067ffffffffffffffff82111715620001fe57620001fd620001a2565b5b80604052505050565b60006200021362000173565b9050620002218282620001d1565b919050565b600067ffffffffffffffff821115620002445762000243620001a2565b5b6200024f8262000191565b9050602081019050919050565b60005b838110156200027c5780820151818401526020810190506200025f565b60008484015250505050565b60006200029f620002998462000226565b62000207565b905082815260208101848484011115620002be57620002bd6200018c565b5b620002cb8482856200025c565b509392505050565b600082601f830112620002eb57620002ea62000187565b5b8151620002fd84826020860162000288565b91505092915050565b600060ff82169050919050565b6200031e8162000306565b81146200032a57600080fd5b50565b6000815190506200033e8162000313565b92915050565b600067ffffffffffffffff821115620003625762000361620001a2565b5b602082029050602081019050919050565b600080fd5b60006200038f620003898462000344565b62000207565b90508083825260208201905060208402830185811115620003b557620003b462000373565b5b835b818110156200040357805167ffffffffffffffff811115620003de57620003dd62000187565b5b808601620003ed8982620002d3565b85526020850194505050602081019050620003b7565b5050509392505050565b600082601f83011262000425576200042462000187565b5b81516200043784826020860162000378565b91505092915050565b6000806000606084860312156200045c576200045b6200017d565b5b600084015167ffffffffffffffff8111156200047d576200047c62000182565b5b6200048b86828701620002d3565b93505060206200049e868287016200032d565b925050604084015167ffffffffffffffff811115620004c257620004c162000182565b5b620004d0868287016200040d565b9150509250925092565b600081519050919050565b7f4e487b7100000000000000000000000000000000000000000000000000000000600052602260045260246000fd5b600060028204905060018216806200052d57607f821691505b602082108103620005435762000542620004e5565b5b50919050565b60008190508160005260206000209050919050565b60006020601f8301049050919050565b600082821b905092915050565b600060088302620005ad7fffffffffffffffffffffffffffffffffffffffffffffffffffffffffffffffff826200056e565b620005b986836200056e565b95508019841693508086168417925050509392505050565b6000819050919050565b6000819050919050565b60006200060662000600620005fa84620005d1565b620005db565b620005d1565b9050919050565b6000819050919050565b6200062283620005e5565b6200063a62000631826200060d565b8484546200057b565b825550505050565b600090565b6200065162000642565b6200065e81848462000617565b505050565b5b8181101562000686576200067a60008262000647565b60018101905062000664565b5050565b601f821115620006d5576200069f8162000549565b620006aa846200055e565b81016020851015620006ba578190505b620006d2620006c9856200055e565b83018262000663565b50505b505050565b600082821c905092915050565b6000620006fa60001984600802620006da565b1980831691505092915050565b6000620007158383620006e7565b9150826002028217905092915050565b6200073082620004da565b67ffffffffffffffff8111156200074c576200074b620001a2565b5b62000758825462000514565b620007658282856200068a565b600060209050601f8311600181146200079d576000841562000788578287015190505b62000794858262000707565b86555062000804565b601f198416620007ad8662000549565b60005b82811015620007d757848901518255600182019150602085019450602081019050620007b0565b86831015620007f75784890151620007f3601f891682620006e7565b8355505b6001600288020188555050505b505050505050565b611f61806200081c6000396000f3fe608060405234801561001057600080fd5b50600436106100575760003560e01c80632351d9641461005c578063abdc67ac1461007a578063ba0968f6146100aa578063c4797ec5146100c8578063c9459249146100e6575b600080fd5b610064610117565b604051610071919061090c565b60405180910390f35b610094600480360381019061008f9190610978565b6101a5565b6040516100a1919061090c565b60405180910390f35b6100b2610251565b6040516100bf91906109c1565b60405180910390f35b6100d0610264565b6040516100dd9190610a5b565b60405180910390f35b61010060048036038101906100fb9190610adb565b61027c565b60405161010e929190610b6f565b60405180910390f35b6000805461012490610bc7565b80601f016020809104026020016040519081016040528092919081815260200182805461015090610bc7565b801561019d5780601f106101725761010080835404028352916020019161019d565b820191906000526020600020905b81548152906001019060200180831161018057829003601f168201915b505050505081565b600281815481106101b557600080fd5b9060005260206000200160009150905080546101d090610bc7565b80601f01602080910402602001604051908101604052809291908181526020018280546101fc90610bc7565b80156102495780601f1061021e57610100808354040283529160200191610249565b820191906000526020600020905b81548152906001019060200180831161022c57829003601f168201915b505050505081565b600160009054906101000a900460ff1681565b731d000001000efd9a6371f4d90bb8920d5431c0d881565b600080600084848101906102909190611106565b90506000806000731d000001000efd9a6371f4d90bb8920d5431c0d873ffffffffffffffffffffffffffffffffffffffff1663578bd921856040518263ffffffff1660e01b81526004016102e491906113fc565b6060604051808303816000875af1158015610303573d6000803e3d6000fd5b505050506040513d601f19601f820116820180604052508101906103279190611498565b9250925092508261036d576040517f08c379a00000000000000000000000000000000000000000000000000000000081526004016103649061155d565b60405180910390fd5b8073ffffffffffffffffffffffffffffffffffffffff1663847755e385602001516040015160006040518363ffffffff1660e01b81526004016103b19291906116d1565b602060405180830381865afa1580156103ce573d6000803e3d6000fd5b505050506040513d601f19601f820116820180604052508101906103f2919061171b565b610431576040517f08c379a0000000000000000000000000000000000000000000000000000000008152600401610428906117ba565b60405180910390fd5b60008173ffffffffffffffffffffffffffffffffffffffff16630af18ba686604001516040518263ffffffff1660e01b81526004016104709190611824565b600060405180830381865afa15801561048d573d6000803e3d6000fd5b505050506040513d6000823e3d601f19601f820116820180604052508101906104b69190611977565b90506104c18a6106f4565b6040516020016104d191906119fc565b6040516020818303038152906040528051906020012081604001516040516020016104fc91906119fc565b6040516020818303038152906040528051906020012014610552576040517f08c379a000000000000000000000000000000000000000000000000000000000815260040161054990611a85565b60405180910390fd5b8173ffffffffffffffffffffffffffffffffffffffff16639b2b63f0600160009054906101000a900460ff1687604001516040518363ffffffff1660e01b81526004016105a0929190611aa5565b602060405180830381865afa1580156105bd573d6000803e3d6000fd5b505050506040513d601f19601f820116820180604052508101906105e1919061171b565b610620576040517f08c379a000000000000000000000000000000000000000000000000000000000815260040161061790611b47565b60405180910390fd5b8173ffffffffffffffffffffffffffffffffffffffff1663103bd3fd600287604001516040518363ffffffff1660e01b8152600401610660929190611cb1565b602060405180830381865afa15801561067d573d6000803e3d6000fd5b505050506040513d601f19601f820116820180604052508101906106a1919061171b565b6106e0576040517f08c379a00000000000000000000000000000000000000000000000000000000081526004016106d790611d5a565b60405180910390fd5b600183965096505050505050935093915050565b60606000820361073b576040518060400160405280600181526020017f30000000000000000000000000000000000000000000000000000000000000008152509050610877565b600082905060005b6000821461076d57808061075690611da9565b915050600a826107669190611e20565b9150610743565b60008167ffffffffffffffff81111561078957610788610bfd565b5b6040519080825280601f01601f1916602001820160405280156107bb5781602001600182028036833780820191505090505b50905060008290505b6000861461086f576001816107d99190611e51565b90506000600a80886107eb9190611e20565b6107f59190611e85565b876108009190611e51565b603061080c9190611ec7565b905060008160f81b90508084848151811061082a57610829611efc565b5b60200101907effffffffffffffffffffffffffffffffffffffffffffffffffffffffffffff1916908160001a905350600a886108669190611e20565b975050506107c4565b819450505050505b919050565b600081519050919050565b600082825260208201905092915050565b60005b838110156108b657808201518184015260208101905061089b565b60008484015250505050565b6000601f19601f8301169050919050565b60006108de8261087c565b6108e88185610887565b93506108f8818560208601610898565b610901816108c2565b840191505092915050565b6000602082019050818103600083015261092681846108d3565b905092915050565b6000604051905090565b600080fd5b600080fd5b6000819050919050565b61095581610942565b811461096057600080fd5b50565b6000813590506109728161094c565b92915050565b60006020828403121561098e5761098d610938565b5b600061099c84828501610963565b91505092915050565b600060ff82169050919050565b6109bb816109a5565b82525050565b60006020820190506109d660008301846109b2565b92915050565b600073ffffffffffffffffffffffffffffffffffffffff82169050919050565b6000819050919050565b6000610a21610a1c610a17846109dc565b6109fc565b6109dc565b9050919050565b6000610a3382610a06565b9050919050565b6000610a4582610a28565b9050919050565b610a5581610a3a565b82525050565b6000602082019050610a706000830184610a4c565b92915050565b600080fd5b600080fd5b600080fd5b60008083601f840112610a9b57610a9a610a76565b5b8235905067ffffffffffffffff811115610ab857610ab7610a7b565b5b602083019150836001820283011115610ad457610ad3610a80565b5b9250929050565b600080600060408486031215610af457610af3610938565b5b6000610b0286828701610963565b935050602084013567ffffffffffffffff811115610b2357610b2261093d565b5b610b2f86828701610a85565b92509250509250925092565b60008115159050919050565b610b5081610b3b565b82525050565b6000819050919050565b610b6981610b56565b82525050565b6000604082019050610b846000830185610b47565b610b916020830184610b60565b9392505050565b7f4e487b7100000000000000000000000000000000000000000000000000000000600052602260045260246000fd5b60006002820490506001821680610bdf57607f821691505b602082108103610bf257610bf1610b98565b5b50919050565b600080fd5b7f4e487b7100000000000000000000000000000000000000000000000000000000600052604160045260246000fd5b610c35826108c2565b810181811067ffffffffffffffff82111715610c5457610c53610bfd565b5b80604052505050565b6000610c6761092e565b9050610c738282610c2c565b919050565b600080fd5b610c8681610b56565b8114610c9157600080fd5b50565b600081359050610ca381610c7d565b92915050565b600080fd5b600067ffffffffffffffff821115610cc957610cc8610bfd565b5b610cd2826108c2565b9050602081019050919050565b82818337600083830152505050565b6000610d01610cfc84610cae565b610c5d565b905082815260208101848484011115610d1d57610d1c610ca9565b5b610d28848285610cdf565b509392505050565b600082601f830112610d4557610d44610a76565b5b8135610d55848260208601610cee565b91505092915050565b600067ffffffffffffffff821115610d7957610d78610bfd565b5b602082029050602081019050919050565b6000610d9d610d9884610d5e565b610c5d565b90508083825260208201905060208402830185811115610dc057610dbf610a80565b5b835b81811015610de95780610dd58882610c94565b845260208401935050602081019050610dc2565b5050509392505050565b600082601f830112610e0857610e07610a76565b5b8135610e18848260208601610d8a565b91505092915050565b600060608284031215610e3757610e36610bf8565b5b610e416060610c5d565b90506000610e5184828501610c94565b600083015250602082013567ffffffffffffffff811115610e7557610e74610c78565b5b610e8184828501610d30565b602083015250604082013567ffffffffffffffff811115610ea557610ea4610c78565b5b610eb184828501610df3565b60408301525092915050565b600067ffffffffffffffff821115610ed857610ed7610bfd565b5b610ee1826108c2565b9050602081019050919050565b6000610f01610efc84610ebd565b610c5d565b905082815260208101848484011115610f1d57610f1c610ca9565b5b610f28848285610cdf565b509392505050565b600082601f830112610f4557610f44610a76565b5b8135610f55848260208601610eee565b91505092915050565b610f6781610b3b565b8114610f7257600080fd5b50565b600081359050610f8481610f5e565b92915050565b600060808284031215610fa057610f9f610bf8565b5b610faa6080610c5d565b90506000610fba84828501610963565b600083015250602082013567ffffffffffffffff811115610fde57610fdd610c78565b5b610fea84828501610f30565b602083015250604082013567ffffffffffffffff81111561100e5761100d610c78565b5b61101a84828501610f30565b604083015250606061102e84828501610f75565b60608301525092915050565b6000608082840312156110505761104f610bf8565b5b61105a6080610c5d565b9050600061106a84828501610c94565b600083015250602082013567ffffffffffffffff81111561108e5761108d610c78565b5b61109a84828501610e21565b602083015250604082013567ffffffffffffffff8111156110be576110bd610c78565b5b6110ca84828501610d30565b604083015250606082013567ffffffffffffffff8111156110ee576110ed610c78565b5b6110fa84828501610f8a565b60608301525092915050565b60006020828403121561111c5761111b610938565b5b600082013567ffffffffffffffff81111561113a5761113961093d565b5b6111468482850161103a565b91505092915050565b61115881610b56565b82525050565b600081519050919050565b600082825260208201905092915050565b60006111858261115e565b61118f8185611169565b935061119f818560208601610898565b6111a8816108c2565b840191505092915050565b600081519050919050565b600082825260208201905092915050565b6000819050602082019050919050565b60006111eb838361114f565b60208301905092915050565b6000602082019050919050565b600061120f826111b3565b61121981856111be565b9350611224836111cf565b8060005b8381101561125557815161123c88826111df565b9750611247836111f7565b925050600181019050611228565b5085935050505092915050565b600060608301600083015161127a600086018261114f565b5060208301518482036020860152611292828261117a565b915050604083015184820360408601526112ac8282611204565b9150508091505092915050565b6112c281610942565b82525050565b600082825260208201905092915050565b60006112e48261087c565b6112ee81856112c8565b93506112fe818560208601610898565b611307816108c2565b840191505092915050565b61131b81610b3b565b82525050565b600060808301600083015161133960008601826112b9565b506020830151848203602086015261135182826112d9565b9150506040830151848203604086015261136b82826112d9565b91505060608301516113806060860182611312565b508091505092915050565b60006080830160008301516113a3600086018261114f565b50602083015184820360208601526113bb8282611262565b915050604083015184820360408601526113d5828261117a565b915050606083015184820360608601526113ef8282611321565b9150508091505092915050565b60006020820190508181036000830152611416818461138b565b905092915050565b60008151905061142d81610f5e565b92915050565b60008151905061144281610c7d565b92915050565b6000611453826109dc565b9050919050565b600061146582611448565b9050919050565b6114758161145a565b811461148057600080fd5b50565b6000815190506114928161146c565b92915050565b6000806000606084860312156114b1576114b0610938565b5b60006114bf8682870161141e565b93505060206114d086828701611433565b92505060406114e186828701611483565b9150509250925092565b7f5a4b50617373706f72743a2043727970746f677261706869632070726f6f662060008201527f697320696e76616c696400000000000000000000000000000000000000000000602082015250565b6000611547602a83610887565b9150611552826114eb565b604082019050919050565b600060208201905081810360008301526115768161153a565b9050919050565b600082825260208201905092915050565b6000611599826111b3565b6115a3818561157d565b93506115ae836111cf565b8060005b838110156115df5781516115c688826111df565b97506115d1836111f7565b9250506001810190506115b2565b5085935050505092915050565b60008190508160005260206000209050919050565b6000815461160e81610bc7565b6116188186610887565b9450600182166000811461163357600181146116495761167c565b60ff19831686528115156020028601935061167c565b611652856115ec565b60005b8381101561167457815481890152600182019150602081019050611655565b808801955050505b50505092915050565b7f766f74696e672d73636f70650000000000000000000000000000000000000000600082015250565b60006116bb600c83610887565b91506116c682611685565b602082019050919050565b600060608201905081810360008301526116eb818561158e565b905081810360208301526116ff8184611601565b90508181036040830152611712816116ae565b90509392505050565b60006020828403121561173157611730610938565b5b600061173f8482850161141e565b91505092915050565b7f5a4b50617373706f72743a20496e76616c69642061707020646f6d61696e206f60008201527f722073636f706500000000000000000000000000000000000000000000000000602082015250565b60006117a4602783610887565b91506117af82611748565b604082019050919050565b600060208201905081810360008301526117d381611797565b9050919050565b600082825260208201905092915050565b60006117f68261115e565b61180081856117da565b9350611810818560208601610898565b611819816108c2565b840191505092915050565b6000602082019050818103600083015261183e81846117eb565b905092915050565b61184f81611448565b811461185a57600080fd5b50565b60008151905061186c81611846565b92915050565b6000815190506118818161094c565b92915050565b600061189a61189584610ebd565b610c5d565b9050828152602081018484840111156118b6576118b5610ca9565b5b6118c1848285610898565b509392505050565b600082601f8301126118de576118dd610a76565b5b81516118ee848260208601611887565b91505092915050565b60006060828403121561190d5761190c610bf8565b5b6119176060610c5d565b905060006119278482850161185d565b600083015250602061193b84828501611872565b602083015250604082015167ffffffffffffffff81111561195f5761195e610c78565b5b61196b848285016118c9565b60408301525092915050565b60006020828403121561198d5761198c610938565b5b600082015167ffffffffffffffff8111156119ab576119aa61093d565b5b6119b7848285016118f7565b91505092915050565b600081905092915050565b60006119d68261087c565b6119e081856119c0565b93506119f0818560208601610898565b80840191505092915050565b6000611a0882846119cb565b915081905092915050565b7f5a4b50617373706f72743a2050726f6f66206e6f7420626f756e6420746f207460008201527f68697320506f6c6c204944000000000000000000000000000000000000000000602082015250565b6000611a6f602b83610887565b9150611a7a82611a13565b604082019050919050565b60006020820190508181036000830152611a9e81611a62565b9050919050565b6000604082019050611aba60008301856109b2565b8181036020830152611acc81846117eb565b90509392505050565b7f5a4b50617373706f72743a20566f74657220646f6573206e6f74206d6565742060008201527f61676520726571756972656d656e740000000000000000000000000000000000602082015250565b6000611b31602f83610887565b9150611b3c82611ad5565b604082019050919050565b60006020820190508181036000830152611b6081611b24565b9050919050565b600081549050919050565b600082825260208201905092915050565b60008190508160005260206000209050919050565b60008154611ba581610bc7565b611baf81866112c8565b94506001821660008114611bca5760018114611be057611c13565b60ff198316865281151560200286019350611c13565b611be9856115ec565b60005b83811015611c0b57815481890152600182019150602081019050611bec565b808801955050505b50505092915050565b6000611c288383611b98565b905092915050565b6000600182019050919050565b6000611c4882611b67565b611c528185611b72565b935083602082028501611c6485611b83565b8060005b85811015611c9f57848403895281611c808582611c1c565b9450611c8b83611c30565b925060208a01995050600181019050611c68565b50829750879550505050505092915050565b60006040820190508181036000830152611ccb8185611c3d565b90508181036020830152611cdf81846117eb565b90509392505050565b7f5a4b50617373706f72743a20566f746572206e6174696f6e616c69747920697360008201527f206e6f7420656c696769626c6520666f72207468697320706f6c6c0000000000602082015250565b6000611d44603b83610887565b9150611d4f82611ce8565b604082019050919050565b60006020820190508181036000830152611d7381611d37565b9050919050565b7f4e487b7100000000000000000000000000000000000000000000000000000000600052601160045260246000fd5b6000611db482610942565b91507fffffffffffffffffffffffffffffffffffffffffffffffffffffffffffffffff8203611de657611de5611d7a565b5b600182019050919050565b7f4e487b7100000000000000000000000000000000000000000000000000000000600052601260045260246000fd5b6000611e2b82610942565b9150611e3683610942565b925082611e4657611e45611df1565b5b828204905092915050565b6000611e5c82610942565b9150611e6783610942565b9250828203905081811115611e7f57611e7e611d7a565b5b92915050565b6000611e9082610942565b9150611e9b83610942565b9250828202611ea981610942565b91508282048414831517611ec057611ebf611d7a565b5b5092915050565b6000611ed2826109a5565b9150611edd836109a5565b9250828201905060ff811115611ef657611ef5611d7a565b5b92915050565b7f4e487b7100000000000000000000000000000000000000000000000000000000600052603260045260246000fdfea264697066735822122068490f003173d959ba6b97524038bf8134a57d5a3983f1d302fc91862f8a061264736f6c63430008150033",
  "linkReferences": {},
  "deployedLinkReferences": {}
}